{
  "_format": "hh-sol-artifact-1",
  "contractName": "PegaxyNftStaking",
  "sourceName": "contracts/PegaxyNftStaking.sol",
  "abi": [
    {
      "inputs": [
        {
          "internalType": "address",
          "name": "nftContractAddress",
          "type": "address"
        },
        {
          "internalType": "address",
          "name": "rewardTokenAddress",
          "type": "address"
        }
      ],
      "stateMutability": "nonpayable",
      "type": "constructor"
    },
    {
      "anonymous": false,
      "inputs": [
        {
          "indexed": true,
          "internalType": "address",
          "name": "owner",
          "type": "address"
        },
        {
          "indexed": true,
          "internalType": "address",
          "name": "approved",
          "type": "address"
        },
        {
          "indexed": true,
          "internalType": "uint256",
          "name": "tokenId",
          "type": "uint256"
        }
      ],
      "name": "Approval",
      "type": "event"
    },
    {
      "anonymous": false,
      "inputs": [
        {
          "indexed": true,
          "internalType": "address",
          "name": "owner",
          "type": "address"
        },
        {
          "indexed": true,
          "internalType": "address",
          "name": "operator",
          "type": "address"
        },
        {
          "indexed": false,
          "internalType": "bool",
          "name": "approved",
          "type": "bool"
        }
      ],
      "name": "ApprovalForAll",
      "type": "event"
    },
    {
      "anonymous": false,
      "inputs": [
        {
          "indexed": false,
          "internalType": "address",
          "name": "owner",
          "type": "address"
        },
        {
          "indexed": false,
          "internalType": "uint256",
          "name": "amount",
          "type": "uint256"
        }
      ],
      "name": "Claimed",
      "type": "event"
    },
    {
      "anonymous": false,
      "inputs": [
        {
          "indexed": false,
          "internalType": "address",
          "name": "owner",
          "type": "address"
        },
        {
          "indexed": false,
          "internalType": "uint256",
          "name": "tokenId",
          "type": "uint256"
        },
        {
          "indexed": false,
          "internalType": "uint256",
          "name": "value",
          "type": "uint256"
        }
      ],
      "name": "NFTStaked",
      "type": "event"
    },
    {
      "anonymous": false,
      "inputs": [
        {
          "indexed": false,
          "internalType": "address",
          "name": "owner",
          "type": "address"
        },
        {
          "indexed": false,
          "internalType": "uint256",
          "name": "tokenId",
          "type": "uint256"
        },
        {
          "indexed": false,
          "internalType": "uint256",
          "name": "value",
          "type": "uint256"
        }
      ],
      "name": "NFTUnstaked",
      "type": "event"
    },
    {
      "anonymous": false,
      "inputs": [
        {
          "indexed": true,
          "internalType": "address",
          "name": "previousOwner",
          "type": "address"
        },
        {
          "indexed": true,
          "internalType": "address",
          "name": "newOwner",
          "type": "address"
        }
      ],
      "name": "OwnershipTransferred",
      "type": "event"
    },
    {
      "anonymous": false,
      "inputs": [
        {
          "indexed": true,
          "internalType": "address",
          "name": "from",
          "type": "address"
        },
        {
          "indexed": true,
          "internalType": "address",
          "name": "to",
          "type": "address"
        },
        {
          "indexed": true,
          "internalType": "uint256",
          "name": "tokenId",
          "type": "uint256"
        }
      ],
      "name": "Transfer",
      "type": "event"
    },
    {
      "inputs": [
        {
          "internalType": "address",
          "name": "to",
          "type": "address"
        },
        {
          "internalType": "uint256",
          "name": "tokenId",
          "type": "uint256"
        }
      ],
      "name": "approve",
      "outputs": [],
      "stateMutability": "nonpayable",
      "type": "function"
    },
    {
      "inputs": [
        {
          "internalType": "address",
          "name": "owner",
          "type": "address"
        }
      ],
      "name": "balanceOf",
      "outputs": [
        {
          "internalType": "uint256",
          "name": "",
          "type": "uint256"
        }
      ],
      "stateMutability": "view",
      "type": "function"
    },
    {
      "inputs": [
        {
          "internalType": "uint256[]",
          "name": "tokenIds",
          "type": "uint256[]"
        }
      ],
      "name": "claim",
      "outputs": [],
      "stateMutability": "nonpayable",
      "type": "function"
    },
    {
      "inputs": [
        {
          "internalType": "uint256",
          "name": "tokenId",
          "type": "uint256"
        }
      ],
      "name": "getApproved",
      "outputs": [
        {
          "internalType": "address",
          "name": "",
          "type": "address"
        }
      ],
      "stateMutability": "view",
      "type": "function"
    },
    {
      "inputs": [
        {
          "internalType": "address",
          "name": "owner",
          "type": "address"
        },
        {
          "internalType": "address",
          "name": "operator",
          "type": "address"
        }
      ],
      "name": "isApprovedForAll",
      "outputs": [
        {
          "internalType": "bool",
          "name": "",
          "type": "bool"
        }
      ],
      "stateMutability": "view",
      "type": "function"
    },
    {
      "inputs": [],
      "name": "name",
      "outputs": [
        {
          "internalType": "string",
          "name": "",
          "type": "string"
        }
      ],
      "stateMutability": "view",
      "type": "function"
    },
    {
      "inputs": [],
      "name": "owner",
      "outputs": [
        {
          "internalType": "address",
          "name": "",
          "type": "address"
        }
      ],
      "stateMutability": "view",
      "type": "function"
    },
    {
      "inputs": [
        {
          "internalType": "address",
          "name": "",
          "type": "address"
        },
        {
          "internalType": "uint256",
          "name": "",
          "type": "uint256"
        }
      ],
      "name": "ownerList",
      "outputs": [
        {
          "internalType": "uint256",
          "name": "",
          "type": "uint256"
        }
      ],
      "stateMutability": "view",
      "type": "function"
    },
    {
      "inputs": [
        {
          "internalType": "address",
          "name": "account",
          "type": "address"
        }
      ],
      "name": "ownerListSize",
      "outputs": [
        {
          "internalType": "uint256[]",
          "name": "",
          "type": "uint256[]"
        }
      ],
      "stateMutability": "view",
      "type": "function"
    },
    {
      "inputs": [
        {
          "internalType": "uint256",
          "name": "tokenId",
          "type": "uint256"
        }
      ],
      "name": "ownerOf",
      "outputs": [
        {
          "internalType": "address",
          "name": "",
          "type": "address"
        }
      ],
      "stateMutability": "view",
      "type": "function"
    },
    {
      "inputs": [],
      "name": "renounceOwnership",
      "outputs": [],
      "stateMutability": "nonpayable",
      "type": "function"
    },
    {
      "inputs": [],
      "name": "rewardDuration",
      "outputs": [
        {
          "internalType": "uint256",
          "name": "",
          "type": "uint256"
        }
      ],
      "stateMutability": "view",
      "type": "function"
    },
    {
      "inputs": [],
      "name": "rewardRate",
      "outputs": [
        {
          "internalType": "uint256",
          "name": "",
          "type": "uint256"
        }
      ],
      "stateMutability": "view",
      "type": "function"
    },
    {
      "inputs": [
        {
          "internalType": "address",
          "name": "from",
          "type": "address"
        },
        {
          "internalType": "address",
          "name": "to",
          "type": "address"
        },
        {
          "internalType": "uint256",
          "name": "tokenId",
          "type": "uint256"
        }
      ],
      "name": "safeTransferFrom",
      "outputs": [],
      "stateMutability": "nonpayable",
      "type": "function"
    },
    {
      "inputs": [
        {
          "internalType": "address",
          "name": "from",
          "type": "address"
        },
        {
          "internalType": "address",
          "name": "to",
          "type": "address"
        },
        {
          "internalType": "uint256",
          "name": "tokenId",
          "type": "uint256"
        },
        {
          "internalType": "bytes",
          "name": "_data",
          "type": "bytes"
        }
      ],
      "name": "safeTransferFrom",
      "outputs": [],
      "stateMutability": "nonpayable",
      "type": "function"
    },
    {
      "inputs": [
        {
          "internalType": "address",
          "name": "operator",
          "type": "address"
        },
        {
          "internalType": "bool",
          "name": "approved",
          "type": "bool"
        }
      ],
      "name": "setApprovalForAll",
      "outputs": [],
      "stateMutability": "nonpayable",
      "type": "function"
    },
    {
      "inputs": [
        {
          "internalType": "uint256",
          "name": "_duration",
          "type": "uint256"
        }
      ],
      "name": "setRewardDuration",
      "outputs": [],
      "stateMutability": "nonpayable",
      "type": "function"
    },
    {
      "inputs": [
        {
          "internalType": "uint256",
          "name": "_rate",
          "type": "uint256"
        }
      ],
      "name": "setRewardRate",
      "outputs": [],
      "stateMutability": "nonpayable",
      "type": "function"
    },
    {
      "inputs": [
        {
          "internalType": "address",
          "name": "_account",
          "type": "address"
        }
      ],
      "name": "setTreasuryWallet",
      "outputs": [],
      "stateMutability": "nonpayable",
      "type": "function"
    },
    {
      "inputs": [
        {
          "internalType": "uint256[]",
          "name": "tokenIds",
          "type": "uint256[]"
        }
      ],
      "name": "stakePegaxy",
      "outputs": [],
      "stateMutability": "nonpayable",
      "type": "function"
    },
    {
      "inputs": [
        {
          "internalType": "bytes4",
          "name": "interfaceId",
          "type": "bytes4"
        }
      ],
      "name": "supportsInterface",
      "outputs": [
        {
          "internalType": "bool",
          "name": "",
          "type": "bool"
        }
      ],
      "stateMutability": "view",
      "type": "function"
    },
    {
      "inputs": [],
      "name": "symbol",
      "outputs": [
        {
          "internalType": "string",
          "name": "",
          "type": "string"
        }
      ],
      "stateMutability": "view",
      "type": "function"
    },
    {
      "inputs": [
        {
          "internalType": "uint256",
          "name": "tokenId",
          "type": "uint256"
        }
      ],
      "name": "tokenURI",
      "outputs": [
        {
          "internalType": "string",
          "name": "",
          "type": "string"
        }
      ],
      "stateMutability": "view",
      "type": "function"
    },
    {
      "inputs": [],
      "name": "totalStaked",
      "outputs": [
        {
          "internalType": "uint256",
          "name": "",
          "type": "uint256"
        }
      ],
      "stateMutability": "view",
      "type": "function"
    },
    {
      "inputs": [
        {
          "internalType": "address",
          "name": "from",
          "type": "address"
        },
        {
          "internalType": "address",
          "name": "to",
          "type": "address"
        },
        {
          "internalType": "uint256",
          "name": "tokenId",
          "type": "uint256"
        }
      ],
      "name": "transferFrom",
      "outputs": [],
      "stateMutability": "nonpayable",
      "type": "function"
    },
    {
      "inputs": [
        {
          "internalType": "address",
          "name": "newOwner",
          "type": "address"
        }
      ],
      "name": "transferOwnership",
      "outputs": [],
      "stateMutability": "nonpayable",
      "type": "function"
    },
    {
      "inputs": [],
      "name": "treasuryWallet",
      "outputs": [
        {
          "internalType": "address",
          "name": "",
          "type": "address"
        }
      ],
      "stateMutability": "view",
      "type": "function"
    },
    {
      "inputs": [
        {
          "internalType": "uint256[]",
          "name": "tokenIds",
          "type": "uint256[]"
        }
      ],
      "name": "unstakePegaxy",
      "outputs": [],
      "stateMutability": "nonpayable",
      "type": "function"
    },
    {
      "inputs": [
        {
          "internalType": "uint256",
          "name": "",
          "type": "uint256"
        }
      ],
      "name": "vault",
      "outputs": [
        {
          "internalType": "uint256",
          "name": "tokenId",
          "type": "uint256"
        },
        {
          "internalType": "uint256",
          "name": "timestamp",
          "type": "uint256"
        },
        {
          "internalType": "address",
          "name": "owner",
          "type": "address"
        },
        {
          "internalType": "bool",
          "name": "isStaked",
          "type": "bool"
        }
      ],
      "stateMutability": "view",
      "type": "function"
    }
  ],
  "bytecode": "0x608060405260786009556000600a55600c80546001600160a01b03191673ae53ca7d620f21a74d7088dbbb38e48c13df90321790553480156200004157600080fd5b506040516200260e3803806200260e833981016040819052620000649162000234565b604080518082018252600e81526d2832b3b0bc3ca628102a37b5b2b760911b602080830191825283518085019094526004845263050584c560e41b908401528151919291620000b69160009162000171565b508051620000cc90600190602084019062000171565b505050620000e9620000e36200011b60201b60201c565b6200011f565b600780546001600160a01b039384166001600160a01b03199182161790915560088054929093169116179055620002a9565b3390565b600680546001600160a01b038381166001600160a01b0319831681179093556040519116919082907f8be0079c531659141344cd1fd0a4f28419497f9722a3daafe3b4186f6b6457e090600090a35050565b8280546200017f906200026c565b90600052602060002090601f016020900481019282620001a35760008555620001ee565b82601f10620001be57805160ff1916838001178555620001ee565b82800160010185558215620001ee579182015b82811115620001ee578251825591602001919060010190620001d1565b50620001fc92915062000200565b5090565b5b80821115620001fc576000815560010162000201565b80516001600160a01b03811681146200022f57600080fd5b919050565b600080604083850312156200024857600080fd5b620002538362000217565b9150620002636020840162000217565b90509250929050565b600181811c908216806200028157607f821691505b60208210811415620002a357634e487b7160e01b600052602260045260246000fd5b50919050565b61235580620002b96000396000f3fe608060405234801561001057600080fd5b50600436106101cf5760003560e01c8063817b1cd211610104578063b88d4fde116100a2578063eaf1152a11610071578063eaf1152a1461045a578063eeea02bf1461046d578063f2fde38b14610480578063f520e7e51461049357600080fd5b8063b88d4fde146103e5578063c0ed00c9146103f8578063c87b56dd1461040b578063e985e9c51461041e57600080fd5b806395d89b41116100de57806395d89b41146103a45780639e447fc6146103ac578063a22cb465146103bf578063a8602fea146103d257600080fd5b8063817b1cd21461031557806381a36fb61461031e5780638da5cb5b1461039357600080fd5b80634626402b116101715780636ba4c1381161014b5780636ba4c138146102d057806370a08231146102e3578063715018a6146103045780637b0a47ee1461030c57600080fd5b80634626402b146102975780634870a066146102aa5780636352211e146102bd57600080fd5b8063095ea7b3116101ad578063095ea7b31461023c5780632012da531461025157806323b872dd1461027157806342842e0e1461028457600080fd5b806301ffc9a7146101d457806306fdde03146101fc578063081812fc14610211575b600080fd5b6101e76101e2366004611f86565b61049c565b60405190151581526020015b60405180910390f35b6102046104ee565b6040516101f391906120ab565b61022461021f366004611fc0565b610580565b6040516001600160a01b0390911681526020016101f3565b61024f61024a366004611ec8565b61061a565b005b61026461025f366004611d06565b610730565b6040516101f39190612067565b61024f61027f366004611d79565b61079c565b61024f610292366004611d79565b6107cd565b600c54610224906001600160a01b031681565b61024f6102b8366004611ef4565b6107e8565b6102246102cb366004611fc0565b6107f9565b61024f6102de366004611ef4565b610870565b6102f66102f1366004611d06565b61087d565b6040519081526020016101f3565b61024f610904565b6102f6600a5481565b6102f6600b5481565b61036261032c366004611fc0565b600d602052600090815260409020805460018201546002909201549091906001600160a01b03811690600160a01b900460ff1684565b6040516101f3949392919093845260208401929092526001600160a01b031660408301521515606082015260800190565b6006546001600160a01b0316610224565b61020461093a565b61024f6103ba366004611fc0565b610949565b61024f6103cd366004611e9a565b610978565b61024f6103e0366004611d06565b610983565b61024f6103f3366004611dba565b6109cf565b61024f610406366004611fc0565b610a07565b610204610419366004611fc0565b610a36565b6101e761042c366004611d40565b6001600160a01b03918216600090815260056020908152604080832093909416825291909152205460ff1690565b61024f610468366004611ef4565b610b1e565b6102f661047b366004611ec8565b610d83565b61024f61048e366004611d06565b610db4565b6102f660095481565b60006001600160e01b031982166380ac58cd60e01b14806104cd57506001600160e01b03198216635b5e139f60e01b145b806104e857506301ffc9a760e01b6001600160e01b03198316145b92915050565b6060600080546104fd90612224565b80601f016020809104026020016040519081016040528092919081815260200182805461052990612224565b80156105765780601f1061054b57610100808354040283529160200191610576565b820191906000526020600020905b81548152906001019060200180831161055957829003601f168201915b5050505050905090565b6000818152600260205260408120546001600160a01b03166105fe5760405162461bcd60e51b815260206004820152602c60248201527f4552433732313a20617070726f76656420717565727920666f72206e6f6e657860448201526b34b9ba32b73a103a37b5b2b760a11b60648201526084015b60405180910390fd5b506000908152600460205260409020546001600160a01b031690565b6000610625826107f9565b9050806001600160a01b0316836001600160a01b031614156106935760405162461bcd60e51b815260206004820152602160248201527f4552433732313a20617070726f76616c20746f2063757272656e74206f776e656044820152603960f91b60648201526084016105f5565b336001600160a01b03821614806106af57506106af813361042c565b6107215760405162461bcd60e51b815260206004820152603860248201527f4552433732313a20617070726f76652063616c6c6572206973206e6f74206f7760448201527f6e6572206e6f7220617070726f76656420666f7220616c6c000000000000000060648201526084016105f5565b61072b8383610e4f565b505050565b6001600160a01b0381166000908152600e602090815260409182902080548351818402810184019094528084526060939283018282801561079057602002820191906000526020600020905b81548152602001906001019080831161077c575b50505050509050919050565b6107a63382610ebd565b6107c25760405162461bcd60e51b81526004016105f590612145565b61072b838383610fb4565b61072b838383604051806020016040528060008152506109cf565b6107f53383836001611150565b5050565b6000818152600260205260408120546001600160a01b0316806104e85760405162461bcd60e51b815260206004820152602960248201527f4552433732313a206f776e657220717565727920666f72206e6f6e657869737460448201526832b73a103a37b5b2b760b91b60648201526084016105f5565b6107f53383836000611150565b60006001600160a01b0382166108e85760405162461bcd60e51b815260206004820152602a60248201527f4552433732313a2062616c616e636520717565727920666f7220746865207a65604482015269726f206164647265737360b01b60648201526084016105f5565b506001600160a01b031660009081526003602052604090205490565b6006546001600160a01b0316331461092e5760405162461bcd60e51b81526004016105f590612110565b61093860006113a7565b565b6060600180546104fd90612224565b6006546001600160a01b031633146109735760405162461bcd60e51b81526004016105f590612110565b600a55565b6107f53383836113f9565b6006546001600160a01b031633146109ad5760405162461bcd60e51b81526004016105f590612110565b600c80546001600160a01b0319166001600160a01b0392909216919091179055565b6109d93383610ebd565b6109f55760405162461bcd60e51b81526004016105f590612145565b610a01848484846114c8565b50505050565b6006546001600160a01b03163314610a315760405162461bcd60e51b81526004016105f590612110565b600955565b6000818152600260205260409020546060906001600160a01b0316610ab55760405162461bcd60e51b815260206004820152602f60248201527f4552433732314d657461646174613a2055524920717565727920666f72206e6f60448201526e3732bc34b9ba32b73a103a37b5b2b760891b60648201526084016105f5565b6000610acc60408051602081019091526000815290565b90506000815111610aec5760405180602001604052806000815250610b17565b80610af6846114fb565b604051602001610b07929190612005565b6040516020818303038152906040525b9392505050565b600082829050600b6000828254610b359190612196565b90915550600090505b82811015610a0157838382818110610b5857610b586122ba565b6007546040516331a9108f60e11b8152602092909202939093013560048201819052945033926001600160a01b03169150636352211e9060240160206040518083038186803b158015610baa57600080fd5b505afa158015610bbe573d6000803e3d6000fd5b505050506040513d601f19601f82011682018060405250810190610be29190611d23565b6001600160a01b031614610c385760405162461bcd60e51b815260206004820152601f60248201527f596f7520617265206e6f74206f776e6572206f66207468697320746f6b656e0060448201526064016105f5565b6000828152600d602052604090205415610c945760405162461bcd60e51b815260206004820152601c60248201527f5468697320746f6b656e20697320616c7265616479207374616b65640000000060448201526064016105f5565b336000818152600e6020908152604080832080546001810182559084529190922001849055600754600c5491516323b872dd60e01b815260048101939093526001600160a01b0391821660248401526044830185905216906323b872dd90606401600060405180830381600087803b158015610d0f57600080fd5b505af1158015610d23573d6000803e3d6000fd5b50506040805133815260208101869052428183015290517f36b3725f1783bad4ff05b7f4c077c3aa68eeb23a4d054ba189db4d01ac278d399350908190036060019150a1610d7182336115f9565b80610d7b8161225f565b915050610b3e565b600e6020528160005260406000208181548110610d9f57600080fd5b90600052602060002001600091509150505481565b6006546001600160a01b03163314610dde5760405162461bcd60e51b81526004016105f590612110565b6001600160a01b038116610e435760405162461bcd60e51b815260206004820152602660248201527f4f776e61626c653a206e6577206f776e657220697320746865207a65726f206160448201526564647265737360d01b60648201526084016105f5565b610e4c816113a7565b50565b600081815260046020526040902080546001600160a01b0319166001600160a01b0384169081179091558190610e84826107f9565b6001600160a01b03167f8c5be1e5ebec7d5bd14f71427d1e84f3dd0314c0f7b2291e5b200ac8c7c3b92560405160405180910390a45050565b6000818152600260205260408120546001600160a01b0316610f365760405162461bcd60e51b815260206004820152602c60248201527f4552433732313a206f70657261746f7220717565727920666f72206e6f6e657860448201526b34b9ba32b73a103a37b5b2b760a11b60648201526084016105f5565b6000610f41836107f9565b9050806001600160a01b0316846001600160a01b03161480610f7c5750836001600160a01b0316610f7184610580565b6001600160a01b0316145b80610fac57506001600160a01b0380821660009081526005602090815260408083209388168352929052205460ff165b949350505050565b826001600160a01b0316610fc7826107f9565b6001600160a01b03161461102b5760405162461bcd60e51b815260206004820152602560248201527f4552433732313a207472616e736665722066726f6d20696e636f72726563742060448201526437bbb732b960d91b60648201526084016105f5565b6001600160a01b03821661108d5760405162461bcd60e51b8152602060048201526024808201527f4552433732313a207472616e7366657220746f20746865207a65726f206164646044820152637265737360e01b60648201526084016105f5565b611098600082610e4f565b6001600160a01b03831660009081526003602052604081208054600192906110c19084906121e1565b90915550506001600160a01b03821660009081526003602052604081208054600192906110ef908490612196565b909155505060008181526002602052604080822080546001600160a01b0319166001600160a01b0386811691821790925591518493918716917fddf252ad1be2c89b69c2b068fc378daa952ba7f163c4a11628f55a4df523b3ef91a4505050565b600080805b848110156112b35785858281811061116f5761116f6122ba565b602090810292909201356000818152600d8452604090819020815160808101835281548152600182015495810195909552600201546001600160a01b03808216928601839052600160a01b90910460ff1615156060860152919650908a1614905061120b5760405162461bcd60e51b815260206004820152600c60248201526b3737ba1030b71037bbb732b960a11b60448201526064016105f5565b60208101516112198161167d565b6112239085612196565b604080516080810182528781524260208083019182526001600160a01b03808f1684860190815260016060860181815260008e8152600d909552969093209451855592519184019190915590516002909201805493511515600160a01b026001600160a81b0319909416929091169190911791909117905593508291506112ab90508161225f565b915050611155565b50801561134c57600854600c546040516323b872dd60e01b81526001600160a01b0391821660048201528882166024820152604481018490529116906323b872dd90606401602060405180830381600087803b15801561131257600080fd5b505af1158015611326573d6000803e3d6000fd5b505050506040513d601f19601f8201168201806040525081019061134a9190611f69565b505b821561135d5761135d868686611728565b604080516001600160a01b0388168152602081018390527fd8138f8a3f377c5259ca548e70e4c2de94f129f5a11036a15b69513cba2b426a910160405180910390a1505050505050565b600680546001600160a01b038381166001600160a01b0319831681179093556040519116919082907f8be0079c531659141344cd1fd0a4f28419497f9722a3daafe3b4186f6b6457e090600090a35050565b816001600160a01b0316836001600160a01b0316141561145b5760405162461bcd60e51b815260206004820152601960248201527f4552433732313a20617070726f766520746f2063616c6c65720000000000000060448201526064016105f5565b6001600160a01b03838116600081815260056020908152604080832094871680845294825291829020805460ff191686151590811790915591519182527f17307eab39ab6107e8899845ad3d59bd9653f200f220920489ca2b5937696c31910160405180910390a3505050565b6114d3848484610fb4565b6114df848484846118f1565b610a015760405162461bcd60e51b81526004016105f5906120be565b60608161151f5750506040805180820190915260018152600360fc1b602082015290565b8160005b811561154957806115338161225f565b91506115429050600a836121ae565b9150611523565b60008167ffffffffffffffff811115611564576115646122d0565b6040519080825280601f01601f19166020018201604052801561158e576020820181803683370190505b5090505b8415610fac576115a36001836121e1565b91506115b0600a8661227a565b6115bb906030612196565b60f81b8183815181106115d0576115d06122ba565b60200101906001600160f81b031916908160001a9053506115f2600a866121ae565b9450611592565b61160381836119fe565b604080516080810182528381524260208083019182526001600160a01b039485168385019081526001606085018181526000988952600d909352949096209251835590519282019290925592516002909301805491511515600160a01b026001600160a81b03199092169390921692909217919091179055565b60008061168a83426121e1565b90506009548110156116de5760405162461bcd60e51b815260206004820152601b60248201527f5769746864726177616c2074696d65206e6f742072656163686564000000000060448201526064016105f5565b6000600954826116ee919061227a565b905060006116fc82846121e1565b905060006009548261170e91906121ae565b905080600a5461171e91906121c2565b9695505050505050565b600082829050600b600082825461173f91906121e1565b90915550600090505b828110156118ea57838382818110611762576117626122ba565b602090810292909201356000818152600d8452604090819020815160808101835281548152600182015495810195909552600201546001600160a01b038116918501829052600160a01b900460ff16151560608501529094503314905061180b5760405162461bcd60e51b815260206004820152601f60248201527f596f7520617265206e6f74206f776e6572206f66207468697320746f6b656e0060448201526064016105f5565b6118158684611a18565b61181e83611ac1565b604080516001600160a01b038816815260208101859052428183015290517fc486b9458a8637650d84d262414833a5a457bc91ae86b7da110386c8c3fa255b9181900360600190a1600754600c546040516323b872dd60e01b81526001600160a01b0391821660048201528882166024820152604481018690529116906323b872dd90606401600060405180830381600087803b1580156118be57600080fd5b505af11580156118d2573d6000803e3d6000fd5b505050505080806118e29061225f565b915050611748565b5050505050565b60006001600160a01b0384163b156119f357604051630a85bd0160e11b81526001600160a01b0385169063150b7a0290611935903390899088908890600401612034565b602060405180830381600087803b15801561194f57600080fd5b505af192505050801561197f575060408051601f3d908101601f1916820190925261197c91810190611fa3565b60015b6119d9573d8080156119ad576040519150601f19603f3d011682016040523d82523d6000602084013e6119b2565b606091505b5080516119d15760405162461bcd60e51b81526004016105f5906120be565b805181602001fd5b6001600160e01b031916630a85bd0160e11b149050610fac565b506001949350505050565b6107f5828260405180602001604052806000815250611af6565b60005b6001600160a01b0383166000908152600e602052604090205481101561072b576001600160a01b0383166000908152600e60205260409020805483919083908110611a6857611a686122ba565b90600052602060002001541415611aaf576001600160a01b0383166000908152600e60205260409020805482908110611aa357611aa36122ba565b60009182526020822001555b80611ab98161225f565b915050611a1b565b611aca81611b29565b6000908152600d60205260408120818155600181019190915560020180546001600160a81b0319169055565b611b008383611bc4565b611b0d60008484846118f1565b61072b5760405162461bcd60e51b81526004016105f5906120be565b6000611b34826107f9565b9050611b41600083610e4f565b6001600160a01b0381166000908152600360205260408120805460019290611b6a9084906121e1565b909155505060008281526002602052604080822080546001600160a01b0319169055518391906001600160a01b038416907fddf252ad1be2c89b69c2b068fc378daa952ba7f163c4a11628f55a4df523b3ef908390a45050565b6001600160a01b038216611c1a5760405162461bcd60e51b815260206004820181905260248201527f4552433732313a206d696e7420746f20746865207a65726f206164647265737360448201526064016105f5565b6000818152600260205260409020546001600160a01b031615611c7f5760405162461bcd60e51b815260206004820152601c60248201527f4552433732313a20746f6b656e20616c7265616479206d696e7465640000000060448201526064016105f5565b6001600160a01b0382166000908152600360205260408120805460019290611ca8908490612196565b909155505060008181526002602052604080822080546001600160a01b0319166001600160a01b03861690811790915590518392907fddf252ad1be2c89b69c2b068fc378daa952ba7f163c4a11628f55a4df523b3ef908290a45050565b600060208284031215611d1857600080fd5b8135610b17816122e6565b600060208284031215611d3557600080fd5b8151610b17816122e6565b60008060408385031215611d5357600080fd5b8235611d5e816122e6565b91506020830135611d6e816122e6565b809150509250929050565b600080600060608486031215611d8e57600080fd5b8335611d99816122e6565b92506020840135611da9816122e6565b929592945050506040919091013590565b60008060008060808587031215611dd057600080fd5b8435611ddb816122e6565b93506020850135611deb816122e6565b925060408501359150606085013567ffffffffffffffff80821115611e0f57600080fd5b818701915087601f830112611e2357600080fd5b813581811115611e3557611e356122d0565b604051601f8201601f19908116603f01168101908382118183101715611e5d57611e5d6122d0565b816040528281528a6020848701011115611e7657600080fd5b82602086016020830137600060208483010152809550505050505092959194509250565b60008060408385031215611ead57600080fd5b8235611eb8816122e6565b91506020830135611d6e816122fb565b60008060408385031215611edb57600080fd5b8235611ee6816122e6565b946020939093013593505050565b60008060208385031215611f0757600080fd5b823567ffffffffffffffff80821115611f1f57600080fd5b818501915085601f830112611f3357600080fd5b813581811115611f4257600080fd5b8660208260051b8501011115611f5757600080fd5b60209290920196919550909350505050565b600060208284031215611f7b57600080fd5b8151610b17816122fb565b600060208284031215611f9857600080fd5b8135610b1781612309565b600060208284031215611fb557600080fd5b8151610b1781612309565b600060208284031215611fd257600080fd5b5035919050565b60008151808452611ff18160208601602086016121f8565b601f01601f19169290920160200192915050565b600083516120178184602088016121f8565b83519083019061202b8183602088016121f8565b01949350505050565b6001600160a01b038581168252841660208201526040810183905260806060820181905260009061171e90830184611fd9565b6020808252825182820181905260009190848201906040850190845b8181101561209f57835183529284019291840191600101612083565b50909695505050505050565b602081526000610b176020830184611fd9565b60208082526032908201527f4552433732313a207472616e7366657220746f206e6f6e20455243373231526560408201527131b2b4bb32b91034b6b83632b6b2b73a32b960711b606082015260800190565b6020808252818101527f4f776e61626c653a2063616c6c6572206973206e6f7420746865206f776e6572604082015260600190565b60208082526031908201527f4552433732313a207472616e736665722063616c6c6572206973206e6f74206f6040820152701ddb995c881b9bdc88185c1c1c9bdd9959607a1b606082015260800190565b600082198211156121a9576121a961228e565b500190565b6000826121bd576121bd6122a4565b500490565b60008160001904831182151516156121dc576121dc61228e565b500290565b6000828210156121f3576121f361228e565b500390565b60005b838110156122135781810151838201526020016121fb565b83811115610a015750506000910152565b600181811c9082168061223857607f821691505b6020821081141561225957634e487b7160e01b600052602260045260246000fd5b50919050565b60006000198214156122735761227361228e565b5060010190565b600082612289576122896122a4565b500690565b634e487b7160e01b600052601160045260246000fd5b634e487b7160e01b600052601260045260246000fd5b634e487b7160e01b600052603260045260246000fd5b634e487b7160e01b600052604160045260246000fd5b6001600160a01b0381168114610e4c57600080fd5b8015158114610e4c57600080fd5b6001600160e01b031981168114610e4c57600080fdfea264697066735822122021c58e2ee0ffcbb71cea9291a375d15a0d564bcb87553611ada4d8e7735a385c64736f6c63430008070033",
  "linkReferences": {},
  "deployedLinkReferences": {}
}